{
  "_format": "hh-sol-artifact-1",
  "contractName": "Voting",
  "sourceName": "contracts/Voting.sol",
  "abi": [
    {
      "inputs": [],
      "stateMutability": "nonpayable",
      "type": "constructor"
    },
    {
      "inputs": [
        {
          "internalType": "address",
          "name": "owner",
          "type": "address"
        }
      ],
      "name": "OwnableInvalidOwner",
      "type": "error"
    },
    {
      "inputs": [
        {
          "internalType": "address",
          "name": "account",
          "type": "address"
        }
      ],
      "name": "OwnableUnauthorizedAccount",
      "type": "error"
    },
    {
      "anonymous": false,
      "inputs": [
        {
          "indexed": true,
          "internalType": "address",
          "name": "voter",
          "type": "address"
        }
      ],
      "name": "Abstained",
      "type": "event"
    },
    {
      "anonymous": false,
      "inputs": [
        {
          "indexed": true,
          "internalType": "address",
          "name": "previousOwner",
          "type": "address"
        },
        {
          "indexed": true,
          "internalType": "address",
          "name": "newOwner",
          "type": "address"
        }
      ],
      "name": "OwnershipTransferred",
      "type": "event"
    },
    {
      "anonymous": false,
      "inputs": [
        {
          "indexed": true,
          "internalType": "uint256",
          "name": "proposalId",
          "type": "uint256"
        }
      ],
      "name": "ProposalRegistered",
      "type": "event"
    },
    {
      "anonymous": false,
      "inputs": [
        {
          "indexed": false,
          "internalType": "uint256",
          "name": "winningProposalId",
          "type": "uint256"
        },
        {
          "indexed": false,
          "internalType": "string",
          "name": "description",
          "type": "string"
        },
        {
          "indexed": false,
          "internalType": "uint256",
          "name": "voteCount",
          "type": "uint256"
        }
      ],
      "name": "VoteTallied",
      "type": "event"
    },
    {
      "anonymous": false,
      "inputs": [
        {
          "indexed": true,
          "internalType": "address",
          "name": "voter",
          "type": "address"
        },
        {
          "indexed": true,
          "internalType": "uint256",
          "name": "newProposalId",
          "type": "uint256"
        }
      ],
      "name": "VoteUpdated",
      "type": "event"
    },
    {
      "anonymous": false,
      "inputs": [
        {
          "indexed": true,
          "internalType": "address",
          "name": "voter",
          "type": "address"
        },
        {
          "indexed": true,
          "internalType": "uint256",
          "name": "proposalId",
          "type": "uint256"
        }
      ],
      "name": "Voted",
      "type": "event"
    },
    {
      "anonymous": false,
      "inputs": [
        {
          "indexed": true,
          "internalType": "address",
          "name": "voterAddress",
          "type": "address"
        }
      ],
      "name": "VoterRegistered",
      "type": "event"
    },
    {
      "anonymous": false,
      "inputs": [
        {
          "indexed": true,
          "internalType": "address",
          "name": "voterAddress",
          "type": "address"
        }
      ],
      "name": "VoterRemoved",
      "type": "event"
    },
    {
      "anonymous": false,
      "inputs": [
        {
          "indexed": false,
          "internalType": "enum Voting.WorkflowStatus",
          "name": "previousStatus",
          "type": "uint8"
        },
        {
          "indexed": false,
          "internalType": "enum Voting.WorkflowStatus",
          "name": "newStatus",
          "type": "uint8"
        }
      ],
      "name": "WorkflowStatusChange",
      "type": "event"
    },
    {
      "inputs": [],
      "name": "abstain",
      "outputs": [],
      "stateMutability": "nonpayable",
      "type": "function"
    },
    {
      "inputs": [],
      "name": "abstentionsCount",
      "outputs": [
        {
          "internalType": "uint256",
          "name": "",
          "type": "uint256"
        }
      ],
      "stateMutability": "view",
      "type": "function"
    },
    {
      "inputs": [],
      "name": "getAllProposals",
      "outputs": [
        {
          "components": [
            {
              "internalType": "string",
              "name": "description",
              "type": "string"
            },
            {
              "internalType": "uint256",
              "name": "voteCount",
              "type": "uint256"
            }
          ],
          "internalType": "struct Voting.Proposal[]",
          "name": "",
          "type": "tuple[]"
        }
      ],
      "stateMutability": "view",
      "type": "function"
    },
    {
      "inputs": [],
      "name": "getAllVoters",
      "outputs": [
        {
          "internalType": "address[]",
          "name": "",
          "type": "address[]"
        }
      ],
      "stateMutability": "view",
      "type": "function"
    },
    {
      "inputs": [
        {
          "internalType": "uint256",
          "name": "_id",
          "type": "uint256"
        }
      ],
      "name": "getOneProposal",
      "outputs": [
        {
          "components": [
            {
              "internalType": "string",
              "name": "description",
              "type": "string"
            },
            {
              "internalType": "uint256",
              "name": "voteCount",
              "type": "uint256"
            }
          ],
          "internalType": "struct Voting.Proposal",
          "name": "",
          "type": "tuple"
        }
      ],
      "stateMutability": "view",
      "type": "function"
    },
    {
      "inputs": [],
      "name": "getPastResults",
      "outputs": [
        {
          "components": [
            {
              "internalType": "uint256",
              "name": "winningProposalId",
              "type": "uint256"
            },
            {
              "internalType": "string",
              "name": "winningProposalDescription",
              "type": "string"
            },
            {
              "internalType": "uint256",
              "name": "winningVoteCount",
              "type": "uint256"
            },
            {
              "internalType": "uint256",
              "name": "totalProposals",
              "type": "uint256"
            }
          ],
          "internalType": "struct Voting.VotingResult[]",
          "name": "",
          "type": "tuple[]"
        }
      ],
      "stateMutability": "view",
      "type": "function"
    },
    {
      "inputs": [
        {
          "internalType": "address",
          "name": "_addr",
          "type": "address"
        }
      ],
      "name": "getVoter",
      "outputs": [
        {
          "components": [
            {
              "internalType": "bool",
              "name": "isRegistered",
              "type": "bool"
            },
            {
              "internalType": "bool",
              "name": "hasVoted",
              "type": "bool"
            },
            {
              "internalType": "bool",
              "name": "hasAbstained",
              "type": "bool"
            },
            {
              "internalType": "uint256",
              "name": "votedProposalId",
              "type": "uint256"
            }
          ],
          "internalType": "struct Voting.Voter",
          "name": "",
          "type": "tuple"
        }
      ],
      "stateMutability": "view",
      "type": "function"
    },
    {
      "inputs": [
        {
          "internalType": "address",
          "name": "_addr",
          "type": "address"
        }
      ],
      "name": "getVoterVote",
      "outputs": [
        {
          "internalType": "uint256",
          "name": "",
          "type": "uint256"
        }
      ],
      "stateMutability": "view",
      "type": "function"
    },
    {
      "inputs": [],
      "name": "getWinners",
      "outputs": [
        {
          "components": [
            {
              "internalType": "string",
              "name": "description",
              "type": "string"
            },
            {
              "internalType": "uint256",
              "name": "voteCount",
              "type": "uint256"
            }
          ],
          "internalType": "struct Voting.Proposal[]",
          "name": "",
          "type": "tuple[]"
        }
      ],
      "stateMutability": "view",
      "type": "function"
    },
    {
      "inputs": [],
      "name": "hasVoted",
      "outputs": [
        {
          "internalType": "bool",
          "name": "",
          "type": "bool"
        }
      ],
      "stateMutability": "view",
      "type": "function"
    },
    {
      "inputs": [
        {
          "internalType": "address",
          "name": "_addr",
          "type": "address"
        }
      ],
      "name": "isRegisteredVoter",
      "outputs": [
        {
          "internalType": "bool",
          "name": "",
          "type": "bool"
        }
      ],
      "stateMutability": "view",
      "type": "function"
    },
    {
      "inputs": [],
      "name": "nextWorkflowStatus",
      "outputs": [],
      "stateMutability": "nonpayable",
      "type": "function"
    },
    {
      "inputs": [],
      "name": "owner",
      "outputs": [
        {
          "internalType": "address",
          "name": "",
          "type": "address"
        }
      ],
      "stateMutability": "view",
      "type": "function"
    },
    {
      "inputs": [
        {
          "internalType": "uint256",
          "name": "",
          "type": "uint256"
        }
      ],
      "name": "pastResults",
      "outputs": [
        {
          "internalType": "uint256",
          "name": "winningProposalId",
          "type": "uint256"
        },
        {
          "internalType": "string",
          "name": "winningProposalDescription",
          "type": "string"
        },
        {
          "internalType": "uint256",
          "name": "winningVoteCount",
          "type": "uint256"
        },
        {
          "internalType": "uint256",
          "name": "totalProposals",
          "type": "uint256"
        }
      ],
      "stateMutability": "view",
      "type": "function"
    },
    {
      "inputs": [
        {
          "internalType": "uint256",
          "name": "",
          "type": "uint256"
        }
      ],
      "name": "proposals",
      "outputs": [
        {
          "internalType": "string",
          "name": "description",
          "type": "string"
        },
        {
          "internalType": "uint256",
          "name": "voteCount",
          "type": "uint256"
        }
      ],
      "stateMutability": "view",
      "type": "function"
    },
    {
      "inputs": [
        {
          "internalType": "string",
          "name": "_description",
          "type": "string"
        }
      ],
      "name": "registerProposal",
      "outputs": [],
      "stateMutability": "nonpayable",
      "type": "function"
    },
    {
      "inputs": [
        {
          "internalType": "address",
          "name": "_voterAddress",
          "type": "address"
        }
      ],
      "name": "registerVoter",
      "outputs": [],
      "stateMutability": "nonpayable",
      "type": "function"
    },
    {
      "inputs": [
        {
          "internalType": "address",
          "name": "_voterAddress",
          "type": "address"
        }
      ],
      "name": "removeVoter",
      "outputs": [],
      "stateMutability": "nonpayable",
      "type": "function"
    },
    {
      "inputs": [],
      "name": "renounceOwnership",
      "outputs": [],
      "stateMutability": "nonpayable",
      "type": "function"
    },
    {
      "inputs": [],
      "name": "tallyVotes",
      "outputs": [],
      "stateMutability": "nonpayable",
      "type": "function"
    },
    {
      "inputs": [
        {
          "internalType": "address",
          "name": "newOwner",
          "type": "address"
        }
      ],
      "name": "transferOwnership",
      "outputs": [],
      "stateMutability": "nonpayable",
      "type": "function"
    },
    {
      "inputs": [
        {
          "internalType": "uint256",
          "name": "_newProposalId",
          "type": "uint256"
        }
      ],
      "name": "updateVote",
      "outputs": [],
      "stateMutability": "nonpayable",
      "type": "function"
    },
    {
      "inputs": [
        {
          "internalType": "uint256",
          "name": "_proposalId",
          "type": "uint256"
        }
      ],
      "name": "vote",
      "outputs": [],
      "stateMutability": "nonpayable",
      "type": "function"
    },
    {
      "inputs": [
        {
          "internalType": "uint256",
          "name": "",
          "type": "uint256"
        }
      ],
      "name": "voterAddresses",
      "outputs": [
        {
          "internalType": "address",
          "name": "",
          "type": "address"
        }
      ],
      "stateMutability": "view",
      "type": "function"
    },
    {
      "inputs": [
        {
          "internalType": "address",
          "name": "",
          "type": "address"
        }
      ],
      "name": "voters",
      "outputs": [
        {
          "internalType": "bool",
          "name": "isRegistered",
          "type": "bool"
        },
        {
          "internalType": "bool",
          "name": "hasVoted",
          "type": "bool"
        },
        {
          "internalType": "bool",
          "name": "hasAbstained",
          "type": "bool"
        },
        {
          "internalType": "uint256",
          "name": "votedProposalId",
          "type": "uint256"
        }
      ],
      "stateMutability": "view",
      "type": "function"
    },
    {
      "inputs": [],
      "name": "winningProposalId",
      "outputs": [
        {
          "internalType": "uint256",
          "name": "",
          "type": "uint256"
        }
      ],
      "stateMutability": "view",
      "type": "function"
    },
    {
      "inputs": [
        {
          "internalType": "uint256",
          "name": "",
          "type": "uint256"
        }
      ],
      "name": "winningProposals",
      "outputs": [
        {
          "internalType": "string",
          "name": "description",
          "type": "string"
        },
        {
          "internalType": "uint256",
          "name": "voteCount",
          "type": "uint256"
        }
      ],
      "stateMutability": "view",
      "type": "function"
    },
    {
      "inputs": [],
      "name": "workflowStatus",
      "outputs": [
        {
          "internalType": "enum Voting.WorkflowStatus",
          "name": "",
          "type": "uint8"
        }
      ],
      "stateMutability": "view",
      "type": "function"
    }
  ],
  "bytecode": "0x60806040523480156200001157600080fd5b5033600073ffffffffffffffffffffffffffffffffffffffff168173ffffffffffffffffffffffffffffffffffffffff1603620000885760006040517f1e4fbdf70000000000000000000000000000000000000000000000000000000081526004016200007f9190620002d7565b60405180910390fd5b6200009981620001ce60201b60201c565b506000600660006101000a81548160ff02191690836005811115620000c357620000c2620002f4565b5b021790555060018060003373ffffffffffffffffffffffffffffffffffffffff1673ffffffffffffffffffffffffffffffffffffffff16815260200190815260200160002060000160006101000a81548160ff0219169083151502179055506008339080600181540180825580915050600190039060005260206000200160009091909190916101000a81548173ffffffffffffffffffffffffffffffffffffffff021916908373ffffffffffffffffffffffffffffffffffffffff1602179055503373ffffffffffffffffffffffffffffffffffffffff167fb6be2187d059cc2a55fe29e0e503b566e1e0f8c8780096e185429350acffd3dd60405160405180910390a262000323565b60008060009054906101000a900473ffffffffffffffffffffffffffffffffffffffff169050816000806101000a81548173ffffffffffffffffffffffffffffffffffffffff021916908373ffffffffffffffffffffffffffffffffffffffff1602179055508173ffffffffffffffffffffffffffffffffffffffff168173ffffffffffffffffffffffffffffffffffffffff167f8be0079c531659141344cd1fd0a4f28419497f9722a3daafe3b4186f6b6457e060405160405180910390a35050565b600073ffffffffffffffffffffffffffffffffffffffff82169050919050565b6000620002bf8262000292565b9050919050565b620002d181620002b2565b82525050565b6000602082019050620002ee6000830184620002c6565b92915050565b7f4e487b7100000000000000000000000000000000000000000000000000000000600052602160045260246000fd5b61429d80620003336000396000f3fe608060405234801561001057600080fd5b50600436106101c45760003560e01c80638da5cb5b116100f9578063d4f50f9811610097578063df15c37e11610071578063df15c37e146104d6578063e576ee28146104f4578063ee977f7714610527578063f2fde38b14610543576101c4565b8063d4f50f9814610446578063da36cffe14610476578063dd0e2373146104a6576101c4565b8063a3ec138d116100d3578063a3ec138d146103b9578063c64963c5146103ec578063ccc34c231461040a578063cceb68f514610428576101c4565b80638da5cb5b1461034d578063a1edffa21461036b578063a2788cce14610389576101c4565b80635e98e4c711610166578063754062841161014057806375406284146102d8578063806d7bd7146102e257806386c1ff68146103135780638997154d1461032f576101c4565b80635e98e4c7146102a657806364821338146102b0578063715018a6146102ce576101c4565b806335bbe70e116101a257806335bbe70e14610232578063378a21781461025057806338db6dd31461025a5780635141e52014610276576101c4565b80630121b93f146101c9578063013cf08b146101e55780632f95355b14610216575b600080fd5b6101e360048036038101906101de9190612b08565b61055f565b005b6101ff60048036038101906101fa9190612b08565b6108ee565b60405161020d929190612bd4565b60405180910390f35b610230600480360381019061022b9190612d39565b6109aa565b005b61023a610b97565b6040516102479190612e72565b60405180910390f35b610258610c25565b005b610274600480360381019061026f9190612ec0565b6110af565b005b610290600480360381019061028b9190612ec0565b6112c0565b60405161029d9190612eed565b60405180910390f35b6102ae61142a565b005b6102b8611706565b6040516102c59190612f23565b60405180910390f35b6102d661175d565b005b6102e0611771565b005b6102fc60048036038101906102f79190612b08565b6118b6565b60405161030a929190612bd4565b60405180910390f35b61032d60048036038101906103289190612ec0565b611972565b005b610337611c62565b60405161034491906130bc565b60405180910390f35b610355611d71565b60405161036291906130ed565b60405180910390f35b610373611d9a565b604051610380919061317f565b60405180910390f35b6103a3600480360381019061039e9190612b08565b611dad565b6040516103b091906131d7565b60405180910390f35b6103d360048036038101906103ce9190612ec0565b611f5b565b6040516103e394939291906131f9565b60405180910390f35b6103f4611fb2565b6040516104019190612eed565b60405180910390f35b610412611fb8565b60405161041f9190612eed565b60405180910390f35b610430611fbe565b60405161043d919061333d565b60405180910390f35b610460600480360381019061045b9190612ec0565b6120b9565b60405161046d91906133c3565b60405180910390f35b610490600480360381019061048b9190612ec0565b6121fc565b60405161049d9190612f23565b60405180910390f35b6104c060048036038101906104bb9190612b08565b612255565b6040516104cd91906130ed565b60405180910390f35b6104de612294565b6040516104eb919061333d565b60405180910390f35b61050e60048036038101906105099190612b08565b612404565b60405161051e94939291906133de565b60405180910390f35b610541600480360381019061053c9190612b08565b6124cc565b005b61055d60048036038101906105589190612ec0565b6127ed565b005b6003600581111561057357610572613108565b5b600660009054906101000a900460ff16600581111561059557610594613108565b5b146105d5576040517f08c379a00000000000000000000000000000000000000000000000000000000081526004016105cc90613476565b60405180910390fd5b600160003373ffffffffffffffffffffffffffffffffffffffff1673ffffffffffffffffffffffffffffffffffffffff16815260200190815260200160002060000160009054906101000a900460ff16610664576040517f08c379a000000000000000000000000000000000000000000000000000000000815260040161065b90613508565b60405180910390fd5b60028054905081106106ab576040517f08c379a00000000000000000000000000000000000000000000000000000000081526004016106a290613574565b60405180910390fd5b600160003373ffffffffffffffffffffffffffffffffffffffff1673ffffffffffffffffffffffffffffffffffffffff16815260200190815260200160002060000160019054906101000a900460ff161561073b576040517f08c379a0000000000000000000000000000000000000000000000000000000008152600401610732906135e0565b60405180910390fd5b600160003373ffffffffffffffffffffffffffffffffffffffff1673ffffffffffffffffffffffffffffffffffffffff16815260200190815260200160002060000160029054906101000a900460ff16156107cb576040517f08c379a00000000000000000000000000000000000000000000000000000000081526004016107c290613672565b60405180910390fd5b600281815481106107df576107de613692565b5b90600052602060002090600202016001016000815480929190610801906136f0565b919050555060018060003373ffffffffffffffffffffffffffffffffffffffff1673ffffffffffffffffffffffffffffffffffffffff16815260200190815260200160002060000160016101000a81548160ff02191690831515021790555080600160003373ffffffffffffffffffffffffffffffffffffffff1673ffffffffffffffffffffffffffffffffffffffff16815260200190815260200160002060010181905550803373ffffffffffffffffffffffffffffffffffffffff167f4d99b957a2bc29a30ebd96a7be8e68fe50a3c701db28a91436490b7d53870ca460405160405180910390a350565b600281815481106108fe57600080fd5b906000526020600020906002020160009150905080600001805461092190613767565b80601f016020809104026020016040519081016040528092919081815260200182805461094d90613767565b801561099a5780601f1061096f5761010080835404028352916020019161099a565b820191906000526020600020905b81548152906001019060200180831161097d57829003601f168201915b5050505050908060010154905082565b600160003373ffffffffffffffffffffffffffffffffffffffff1673ffffffffffffffffffffffffffffffffffffffff16815260200190815260200160002060000160009054906101000a900460ff16610a39576040517f08c379a0000000000000000000000000000000000000000000000000000000008152600401610a3090613508565b60405180910390fd5b60016005811115610a4d57610a4c613108565b5b600660009054906101000a900460ff166005811115610a6f57610a6e613108565b5b14610aaf576040517f08c379a0000000000000000000000000000000000000000000000000000000008152600401610aa6906137e4565b60405180910390fd5b6000815111610af3576040517f08c379a0000000000000000000000000000000000000000000000000000000008152600401610aea90613876565b60405180910390fd5b60026040518060400160405280838152602001600081525090806001815401808255809150506001900390600052602060002090600202016000909190919091506000820151816000019081610b499190613a42565b506020820151816001015550506001600280549050610b689190613b14565b7f92e393e9b54e2f801d3ea4beb0c5e71a21cc34a5d34b77d0fb8a3aa1650dc18f60405160405180910390a250565b60606008805480602002602001604051908101604052809291908181526020018280548015610c1b57602002820191906000526020600020905b8160009054906101000a900473ffffffffffffffffffffffffffffffffffffffff1673ffffffffffffffffffffffffffffffffffffffff1681526020019060010190808311610bd1575b5050505050905090565b610c2d612873565b60046005811115610c4157610c40613108565b5b600660009054906101000a900460ff166005811115610c6357610c62613108565b5b14610ca3576040517f08c379a0000000000000000000000000000000000000000000000000000000008152600401610c9a90613bba565b60405180910390fd5b600060056000610cb391906129c6565b60005b600280549050811015610e5c578160028281548110610cd857610cd7613692565b5b9060005260206000209060020201600101541115610da05760028181548110610d0457610d03613692565b5b906000526020600020906002020160010154915060056000610d2691906129c6565b600560028281548110610d3c57610d3b613692565b5b9060005260206000209060020201908060018154018082558091505060019003906000526020600020906002020160009091909190915060008201816000019081610d879190613bf0565b5060018201548160010155505080600381905550610e49565b8160028281548110610db557610db4613692565b5b906000526020600020906002020160010154148015610dd45750600082115b15610e4857600560028281548110610def57610dee613692565b5b9060005260206000209060020201908060018154018082558091505060019003906000526020600020906002020160009091909190915060008201816000019081610e3a9190613bf0565b506001820154816001015550505b5b8080610e54906136f0565b915050610cb6565b50600760405180608001604052806003548152602001600260035481548110610e8857610e87613692565b5b90600052602060002090600202016000018054610ea490613767565b80601f0160208091040260200160405190810160405280929190818152602001828054610ed090613767565b8015610f1d5780601f10610ef257610100808354040283529160200191610f1d565b820191906000526020600020905b815481529060010190602001808311610f0057829003601f168201915b50505050508152602001600260035481548110610f3d57610f3c613692565b5b90600052602060002090600202016001015481526020016002805490508152509080600181540180825580915050600190039060005260206000209060040201600090919091909150600082015181600001556020820151816001019081610fa59190613a42565b50604082015181600201556060820151816003015550506005600660006101000a81548160ff02191690836005811115610fe257610fe1613108565b5b02179055507f0a97a4ee45751e2abf3e4fc8946939630b11b371ea8ae39ccdc3056e98f5cc3f6004600560405161101a929190613cd8565b60405180910390a17f29c84247a2e59d1ca62c2379faaf0b5fee8ea09aacb293756f3d92fe6e4223f560035460026003548154811061105c5761105b613692565b5b906000526020600020906002020160000160026003548154811061108357611082613692565b5b9060005260206000209060020201600101546040516110a493929190613d85565b60405180910390a150565b6110b7612873565b600060058111156110cb576110ca613108565b5b600660009054906101000a900460ff1660058111156110ed576110ec613108565b5b1461112d576040517f08c379a000000000000000000000000000000000000000000000000000000000815260040161112490613e35565b60405180910390fd5b600160008273ffffffffffffffffffffffffffffffffffffffff1673ffffffffffffffffffffffffffffffffffffffff16815260200190815260200160002060000160009054906101000a900460ff16156111bd576040517f08c379a00000000000000000000000000000000000000000000000000000000081526004016111b490613ea1565b60405180910390fd5b60018060008373ffffffffffffffffffffffffffffffffffffffff1673ffffffffffffffffffffffffffffffffffffffff16815260200190815260200160002060000160006101000a81548160ff0219169083151502179055506008819080600181540180825580915050600190039060005260206000200160009091909190916101000a81548173ffffffffffffffffffffffffffffffffffffffff021916908373ffffffffffffffffffffffffffffffffffffffff1602179055508073ffffffffffffffffffffffffffffffffffffffff167fb6be2187d059cc2a55fe29e0e503b566e1e0f8c8780096e185429350acffd3dd60405160405180910390a250565b6000600160003373ffffffffffffffffffffffffffffffffffffffff1673ffffffffffffffffffffffffffffffffffffffff16815260200190815260200160002060000160009054906101000a900460ff16611351576040517f08c379a000000000000000000000000000000000000000000000000000000000815260040161134890613508565b60405180910390fd5b600160008373ffffffffffffffffffffffffffffffffffffffff1673ffffffffffffffffffffffffffffffffffffffff16815260200190815260200160002060000160019054906101000a900460ff166113e0576040517f08c379a00000000000000000000000000000000000000000000000000000000081526004016113d790613f0d565b60405180910390fd5b600160008373ffffffffffffffffffffffffffffffffffffffff1673ffffffffffffffffffffffffffffffffffffffff168152602001908152602001600020600101549050919050565b6003600581111561143e5761143d613108565b5b600660009054906101000a900460ff1660058111156114605761145f613108565b5b146114a0576040517f08c379a000000000000000000000000000000000000000000000000000000000815260040161149790613476565b60405180910390fd5b600160003373ffffffffffffffffffffffffffffffffffffffff1673ffffffffffffffffffffffffffffffffffffffff16815260200190815260200160002060000160009054906101000a900460ff1661152f576040517f08c379a000000000000000000000000000000000000000000000000000000000815260040161152690613508565b60405180910390fd5b600160003373ffffffffffffffffffffffffffffffffffffffff1673ffffffffffffffffffffffffffffffffffffffff16815260200190815260200160002060000160019054906101000a900460ff16156115bf576040517f08c379a00000000000000000000000000000000000000000000000000000000081526004016115b6906135e0565b60405180910390fd5b600160003373ffffffffffffffffffffffffffffffffffffffff1673ffffffffffffffffffffffffffffffffffffffff16815260200190815260200160002060000160029054906101000a900460ff161561164f576040517f08c379a000000000000000000000000000000000000000000000000000000000815260040161164690613f79565b60405180910390fd5b60018060003373ffffffffffffffffffffffffffffffffffffffff1673ffffffffffffffffffffffffffffffffffffffff16815260200190815260200160002060000160026101000a81548160ff021916908315150217905550600460008154809291906116bc906136f0565b91905055503373ffffffffffffffffffffffffffffffffffffffff167fcec4b249e8fa3a9849f65da74ce51251c4e51de3e4abfcd282cef58f212f609f60405160405180910390a2565b6000600160003373ffffffffffffffffffffffffffffffffffffffff1673ffffffffffffffffffffffffffffffffffffffff16815260200190815260200160002060000160019054906101000a900460ff16905090565b611765612873565b61176f60006128fa565b565b611779612873565b60058081111561178c5761178b613108565b5b600660009054906101000a900460ff1660058111156117ae576117ad613108565b5b036117ee576040517f08c379a00000000000000000000000000000000000000000000000000000000081526004016117e59061400b565b60405180910390fd5b6000600660009054906101000a900460ff1690506001600660009054906101000a900460ff16600581111561182657611825613108565b5b611830919061402b565b600581111561184257611841613108565b5b600660006101000a81548160ff0219169083600581111561186657611865613108565b5b02179055507f0a97a4ee45751e2abf3e4fc8946939630b11b371ea8ae39ccdc3056e98f5cc3f81600660009054906101000a900460ff166040516118ab929190613cd8565b60405180910390a150565b600581815481106118c657600080fd5b90600052602060002090600202016000915090508060000180546118e990613767565b80601f016020809104026020016040519081016040528092919081815260200182805461191590613767565b80156119625780601f1061193757610100808354040283529160200191611962565b820191906000526020600020905b81548152906001019060200180831161194557829003601f168201915b5050505050908060010154905082565b61197a612873565b600160008273ffffffffffffffffffffffffffffffffffffffff1673ffffffffffffffffffffffffffffffffffffffff16815260200190815260200160002060000160009054906101000a900460ff16611a09576040517f08c379a0000000000000000000000000000000000000000000000000000000008152600401611a00906140ab565b60405180910390fd5b600160008273ffffffffffffffffffffffffffffffffffffffff1673ffffffffffffffffffffffffffffffffffffffff168152602001908152602001600020600080820160006101000a81549060ff02191690556000820160016101000a81549060ff02191690556000820160026101000a81549060ff02191690556001820160009055505060005b600880549050811015611c1b578173ffffffffffffffffffffffffffffffffffffffff1660088281548110611aca57611ac9613692565b5b9060005260206000200160009054906101000a900473ffffffffffffffffffffffffffffffffffffffff1673ffffffffffffffffffffffffffffffffffffffff1603611c085760086001600880549050611b249190613b14565b81548110611b3557611b34613692565b5b9060005260206000200160009054906101000a900473ffffffffffffffffffffffffffffffffffffffff1660088281548110611b7457611b73613692565b5b9060005260206000200160006101000a81548173ffffffffffffffffffffffffffffffffffffffff021916908373ffffffffffffffffffffffffffffffffffffffff1602179055506008805480611bce57611bcd6140cb565b5b6001900381819060005260206000200160006101000a81549073ffffffffffffffffffffffffffffffffffffffff02191690559055611c1b565b8080611c13906136f0565b915050611a92565b508073ffffffffffffffffffffffffffffffffffffffff167fa14a79af012d1756818f9bd59ccfc9ad185a71df86b9392d9059d9e6faf6d64460405160405180910390a250565b60606007805480602002602001604051908101604052809291908181526020016000905b82821015611d68578382906000526020600020906004020160405180608001604052908160008201548152602001600182018054611cc390613767565b80601f0160208091040260200160405190810160405280929190818152602001828054611cef90613767565b8015611d3c5780601f10611d1157610100808354040283529160200191611d3c565b820191906000526020600020905b815481529060010190602001808311611d1f57829003601f168201915b505050505081526020016002820154815260200160038201548152505081526020019060010190611c86565b50505050905090565b60008060009054906101000a900473ffffffffffffffffffffffffffffffffffffffff16905090565b600660009054906101000a900460ff1681565b611db56129ea565b600160003373ffffffffffffffffffffffffffffffffffffffff1673ffffffffffffffffffffffffffffffffffffffff16815260200190815260200160002060000160009054906101000a900460ff16611e44576040517f08c379a0000000000000000000000000000000000000000000000000000000008152600401611e3b90613508565b60405180910390fd5b6002805490508210611e8b576040517f08c379a0000000000000000000000000000000000000000000000000000000008152600401611e8290614146565b60405180910390fd5b60028281548110611e9f57611e9e613692565b5b9060005260206000209060020201604051806040016040529081600082018054611ec890613767565b80601f0160208091040260200160405190810160405280929190818152602001828054611ef490613767565b8015611f415780601f10611f1657610100808354040283529160200191611f41565b820191906000526020600020905b815481529060010190602001808311611f2457829003601f168201915b505050505081526020016001820154815250509050919050565b60016020528060005260406000206000915090508060000160009054906101000a900460ff16908060000160019054906101000a900460ff16908060000160029054906101000a900460ff16908060010154905084565b60035481565b60045481565b60606002805480602002602001604051908101604052809291908181526020016000905b828210156120b0578382906000526020600020906002020160405180604001604052908160008201805461201590613767565b80601f016020809104026020016040519081016040528092919081815260200182805461204190613767565b801561208e5780601f106120635761010080835404028352916020019161208e565b820191906000526020600020905b81548152906001019060200180831161207157829003601f168201915b5050505050815260200160018201548152505081526020019060010190611fe2565b50505050905090565b6120c1612a04565b600160003373ffffffffffffffffffffffffffffffffffffffff1673ffffffffffffffffffffffffffffffffffffffff16815260200190815260200160002060000160009054906101000a900460ff16612150576040517f08c379a000000000000000000000000000000000000000000000000000000000815260040161214790613508565b60405180910390fd5b600160008373ffffffffffffffffffffffffffffffffffffffff1673ffffffffffffffffffffffffffffffffffffffff1681526020019081526020016000206040518060800160405290816000820160009054906101000a900460ff161515151581526020016000820160019054906101000a900460ff161515151581526020016000820160029054906101000a900460ff161515151581526020016001820154815250509050919050565b6000600160008373ffffffffffffffffffffffffffffffffffffffff1673ffffffffffffffffffffffffffffffffffffffff16815260200190815260200160002060000160009054906101000a900460ff169050919050565b6008818154811061226557600080fd5b906000526020600020016000915054906101000a900473ffffffffffffffffffffffffffffffffffffffff1681565b60606005808111156122a9576122a8613108565b5b600660009054906101000a900460ff1660058111156122cb576122ca613108565b5b1461230b576040517f08c379a0000000000000000000000000000000000000000000000000000000008152600401612302906141b2565b60405180910390fd5b6005805480602002602001604051908101604052809291908181526020016000905b828210156123fb578382906000526020600020906002020160405180604001604052908160008201805461236090613767565b80601f016020809104026020016040519081016040528092919081815260200182805461238c90613767565b80156123d95780601f106123ae576101008083540402835291602001916123d9565b820191906000526020600020905b8154815290600101906020018083116123bc57829003601f168201915b505050505081526020016001820154815250508152602001906001019061232d565b50505050905090565b6007818154811061241457600080fd5b906000526020600020906004020160009150905080600001549080600101805461243d90613767565b80601f016020809104026020016040519081016040528092919081815260200182805461246990613767565b80156124b65780601f1061248b576101008083540402835291602001916124b6565b820191906000526020600020905b81548152906001019060200180831161249957829003601f168201915b5050505050908060020154908060030154905084565b600360058111156124e0576124df613108565b5b600660009054906101000a900460ff16600581111561250257612501613108565b5b14612542576040517f08c379a000000000000000000000000000000000000000000000000000000000815260040161253990613476565b60405180910390fd5b600160003373ffffffffffffffffffffffffffffffffffffffff1673ffffffffffffffffffffffffffffffffffffffff16815260200190815260200160002060000160009054906101000a900460ff166125d1576040517f08c379a00000000000000000000000000000000000000000000000000000000081526004016125c890613508565b60405180910390fd5b600160003373ffffffffffffffffffffffffffffffffffffffff1673ffffffffffffffffffffffffffffffffffffffff16815260200190815260200160002060000160019054906101000a900460ff16612660576040517f08c379a00000000000000000000000000000000000000000000000000000000081526004016126579061421e565b60405180910390fd5b60028054905081106126a7576040517f08c379a000000000000000000000000000000000000000000000000000000000815260040161269e90613574565b60405180910390fd5b6002600160003373ffffffffffffffffffffffffffffffffffffffff1673ffffffffffffffffffffffffffffffffffffffff16815260200190815260200160002060010154815481106126fd576126fc613692565b5b9060005260206000209060020201600101600081548092919061271f9061423e565b91905055506002818154811061273857612737613692565b5b9060005260206000209060020201600101600081548092919061275a906136f0565b919050555080600160003373ffffffffffffffffffffffffffffffffffffffff1673ffffffffffffffffffffffffffffffffffffffff16815260200190815260200160002060010181905550803373ffffffffffffffffffffffffffffffffffffffff167fe8706ccd15bd462676b1ac20273930c7b1c3fdb1bd9e702a1bae847e16572c7c60405160405180910390a350565b6127f5612873565b600073ffffffffffffffffffffffffffffffffffffffff168173ffffffffffffffffffffffffffffffffffffffff16036128675760006040517f1e4fbdf700000000000000000000000000000000000000000000000000000000815260040161285e91906130ed565b60405180910390fd5b612870816128fa565b50565b61287b6129be565b73ffffffffffffffffffffffffffffffffffffffff16612899611d71565b73ffffffffffffffffffffffffffffffffffffffff16146128f8576128bc6129be565b6040517f118cdaa70000000000000000000000000000000000000000000000000000000081526004016128ef91906130ed565b60405180910390fd5b565b60008060009054906101000a900473ffffffffffffffffffffffffffffffffffffffff169050816000806101000a81548173ffffffffffffffffffffffffffffffffffffffff021916908373ffffffffffffffffffffffffffffffffffffffff1602179055508173ffffffffffffffffffffffffffffffffffffffff168173ffffffffffffffffffffffffffffffffffffffff167f8be0079c531659141344cd1fd0a4f28419497f9722a3daafe3b4186f6b6457e060405160405180910390a35050565b600033905090565b50805460008255600202906000526020600020908101906129e79190612a32565b50565b604051806040016040528060608152602001600081525090565b6040518060800160405280600015158152602001600015158152602001600015158152602001600081525090565b5b80821115612a5d5760008082016000612a4c9190612a61565b600182016000905550600201612a33565b5090565b508054612a6d90613767565b6000825580601f10612a7f5750612a9e565b601f016020900490600052602060002090810190612a9d9190612aa1565b5b50565b5b80821115612aba576000816000905550600101612aa2565b5090565b6000604051905090565b600080fd5b600080fd5b6000819050919050565b612ae581612ad2565b8114612af057600080fd5b50565b600081359050612b0281612adc565b92915050565b600060208284031215612b1e57612b1d612ac8565b5b6000612b2c84828501612af3565b91505092915050565b600081519050919050565b600082825260208201905092915050565b60005b83811015612b6f578082015181840152602081019050612b54565b60008484015250505050565b6000601f19601f8301169050919050565b6000612b9782612b35565b612ba18185612b40565b9350612bb1818560208601612b51565b612bba81612b7b565b840191505092915050565b612bce81612ad2565b82525050565b60006040820190508181036000830152612bee8185612b8c565b9050612bfd6020830184612bc5565b9392505050565b600080fd5b600080fd5b7f4e487b7100000000000000000000000000000000000000000000000000000000600052604160045260246000fd5b612c4682612b7b565b810181811067ffffffffffffffff82111715612c6557612c64612c0e565b5b80604052505050565b6000612c78612abe565b9050612c848282612c3d565b919050565b600067ffffffffffffffff821115612ca457612ca3612c0e565b5b612cad82612b7b565b9050602081019050919050565b82818337600083830152505050565b6000612cdc612cd784612c89565b612c6e565b905082815260208101848484011115612cf857612cf7612c09565b5b612d03848285612cba565b509392505050565b600082601f830112612d2057612d1f612c04565b5b8135612d30848260208601612cc9565b91505092915050565b600060208284031215612d4f57612d4e612ac8565b5b600082013567ffffffffffffffff811115612d6d57612d6c612acd565b5b612d7984828501612d0b565b91505092915050565b600081519050919050565b600082825260208201905092915050565b6000819050602082019050919050565b600073ffffffffffffffffffffffffffffffffffffffff82169050919050565b6000612dd982612dae565b9050919050565b612de981612dce565b82525050565b6000612dfb8383612de0565b60208301905092915050565b6000602082019050919050565b6000612e1f82612d82565b612e298185612d8d565b9350612e3483612d9e565b8060005b83811015612e65578151612e4c8882612def565b9750612e5783612e07565b925050600181019050612e38565b5085935050505092915050565b60006020820190508181036000830152612e8c8184612e14565b905092915050565b612e9d81612dce565b8114612ea857600080fd5b50565b600081359050612eba81612e94565b92915050565b600060208284031215612ed657612ed5612ac8565b5b6000612ee484828501612eab565b91505092915050565b6000602082019050612f026000830184612bc5565b92915050565b60008115159050919050565b612f1d81612f08565b82525050565b6000602082019050612f386000830184612f14565b92915050565b600081519050919050565b600082825260208201905092915050565b6000819050602082019050919050565b612f7381612ad2565b82525050565b600082825260208201905092915050565b6000612f9582612b35565b612f9f8185612f79565b9350612faf818560208601612b51565b612fb881612b7b565b840191505092915050565b6000608083016000830151612fdb6000860182612f6a565b5060208301518482036020860152612ff38282612f8a565b91505060408301516130086040860182612f6a565b50606083015161301b6060860182612f6a565b508091505092915050565b60006130328383612fc3565b905092915050565b6000602082019050919050565b600061305282612f3e565b61305c8185612f49565b93508360208202850161306e85612f5a565b8060005b858110156130aa578484038952815161308b8582613026565b94506130968361303a565b925060208a01995050600181019050613072565b50829750879550505050505092915050565b600060208201905081810360008301526130d68184613047565b905092915050565b6130e781612dce565b82525050565b600060208201905061310260008301846130de565b92915050565b7f4e487b7100000000000000000000000000000000000000000000000000000000600052602160045260246000fd5b6006811061314857613147613108565b5b50565b600081905061315982613137565b919050565b60006131698261314b565b9050919050565b6131798161315e565b82525050565b60006020820190506131946000830184613170565b92915050565b600060408301600083015184820360008601526131b78282612f8a565b91505060208301516131cc6020860182612f6a565b508091505092915050565b600060208201905081810360008301526131f1818461319a565b905092915050565b600060808201905061320e6000830187612f14565b61321b6020830186612f14565b6132286040830185612f14565b6132356060830184612bc5565b95945050505050565b600081519050919050565b600082825260208201905092915050565b6000819050602082019050919050565b600060408301600083015184820360008601526132878282612f8a565b915050602083015161329c6020860182612f6a565b508091505092915050565b60006132b3838361326a565b905092915050565b6000602082019050919050565b60006132d38261323e565b6132dd8185613249565b9350836020820285016132ef8561325a565b8060005b8581101561332b578484038952815161330c85826132a7565b9450613317836132bb565b925060208a019950506001810190506132f3565b50829750879550505050505092915050565b6000602082019050818103600083015261335781846132c8565b905092915050565b61336881612f08565b82525050565b608082016000820151613384600085018261335f565b506020820151613397602085018261335f565b5060408201516133aa604085018261335f565b5060608201516133bd6060850182612f6a565b50505050565b60006080820190506133d8600083018461336e565b92915050565b60006080820190506133f36000830187612bc5565b81810360208301526134058186612b8c565b90506134146040830185612bc5565b6134216060830184612bc5565b95945050505050565b7f566f74696e672073657373696f6e206973206e6f74206163746976652e000000600082015250565b6000613460601d83612b40565b915061346b8261342a565b602082019050919050565b6000602082019050818103600083015261348f81613453565b9050919050565b7f596f7520617265206e6f742072656769737465726564206173206120766f746560008201527f722e000000000000000000000000000000000000000000000000000000000000602082015250565b60006134f2602283612b40565b91506134fd82613496565b604082019050919050565b60006020820190508181036000830152613521816134e5565b9050919050565b7f496e76616c69642070726f706f73616c2049442e000000000000000000000000600082015250565b600061355e601483612b40565b915061356982613528565b602082019050919050565b6000602082019050818103600083015261358d81613551565b9050919050565b7f596f75206861766520616c726561647920766f7465642e000000000000000000600082015250565b60006135ca601783612b40565b91506135d582613594565b602082019050919050565b600060208201905081810360008301526135f9816135bd565b9050919050565b7f596f752068617665206162737461696e656420616e642063616e6e6f7420766f60008201527f74652e0000000000000000000000000000000000000000000000000000000000602082015250565b600061365c602383612b40565b915061366782613600565b604082019050919050565b6000602082019050818103600083015261368b8161364f565b9050919050565b7f4e487b7100000000000000000000000000000000000000000000000000000000600052603260045260246000fd5b7f4e487b7100000000000000000000000000000000000000000000000000000000600052601160045260246000fd5b60006136fb82612ad2565b91507fffffffffffffffffffffffffffffffffffffffffffffffffffffffffffffffff820361372d5761372c6136c1565b5b600182019050919050565b7f4e487b7100000000000000000000000000000000000000000000000000000000600052602260045260246000fd5b6000600282049050600182168061377f57607f821691505b60208210810361379257613791613738565b5b50919050565b7f50726f706f73616c7320617265206e6f7420616c6c6f776564207965742e0000600082015250565b60006137ce601e83612b40565b91506137d982613798565b602082019050919050565b600060208201905081810360008301526137fd816137c1565b9050919050565b7f50726f706f73616c206465736372697074696f6e2063616e6e6f74206265206560008201527f6d7074792e000000000000000000000000000000000000000000000000000000602082015250565b6000613860602583612b40565b915061386b82613804565b604082019050919050565b6000602082019050818103600083015261388f81613853565b9050919050565b60008190508160005260206000209050919050565b60006020601f8301049050919050565b600082821b905092915050565b6000600883026138f87fffffffffffffffffffffffffffffffffffffffffffffffffffffffffffffffff826138bb565b61390286836138bb565b95508019841693508086168417925050509392505050565b6000819050919050565b600061393f61393a61393584612ad2565b61391a565b612ad2565b9050919050565b6000819050919050565b61395983613924565b61396d61396582613946565b8484546138c8565b825550505050565b600090565b613982613975565b61398d818484613950565b505050565b5b818110156139b1576139a660008261397a565b600181019050613993565b5050565b601f8211156139f6576139c781613896565b6139d0846138ab565b810160208510156139df578190505b6139f36139eb856138ab565b830182613992565b50505b505050565b600082821c905092915050565b6000613a19600019846008026139fb565b1980831691505092915050565b6000613a328383613a08565b9150826002028217905092915050565b613a4b82612b35565b67ffffffffffffffff811115613a6457613a63612c0e565b5b613a6e8254613767565b613a798282856139b5565b600060209050601f831160018114613aac5760008415613a9a578287015190505b613aa48582613a26565b865550613b0c565b601f198416613aba86613896565b60005b82811015613ae257848901518255600182019150602085019450602081019050613abd565b86831015613aff5784890151613afb601f891682613a08565b8355505b6001600288020188555050505b505050505050565b6000613b1f82612ad2565b9150613b2a83612ad2565b9250828203905081811115613b4257613b416136c1565b5b92915050565b7f566f74696e672073657373696f6e20686173206e6f7420656e6465642079657460008201527f2e00000000000000000000000000000000000000000000000000000000000000602082015250565b6000613ba4602183612b40565b9150613baf82613b48565b604082019050919050565b60006020820190508181036000830152613bd381613b97565b9050919050565b600081549050613be981613767565b9050919050565b818103613bfe575050613cd6565b613c0782613bda565b67ffffffffffffffff811115613c2057613c1f612c0e565b5b613c2a8254613767565b613c358282856139b5565b6000601f831160018114613c645760008415613c52578287015490505b613c5c8582613a26565b865550613ccf565b601f198416613c7287613896565b9650613c7d86613896565b60005b82811015613ca557848901548255600182019150600185019450602081019050613c80565b86831015613cc25784890154613cbe601f891682613a08565b8355505b6001600288020188555050505b5050505050505b565b6000604082019050613ced6000830185613170565b613cfa6020830184613170565b9392505050565b60008154613d0e81613767565b613d188186612b40565b94506001821660008114613d335760018114613d4957613d7c565b60ff198316865281151560200286019350613d7c565b613d5285613896565b60005b83811015613d7457815481890152600182019150602081019050613d55565b808801955050505b50505092915050565b6000606082019050613d9a6000830186612bc5565b8181036020830152613dac8185613d01565b9050613dbb6040830184612bc5565b949350505050565b7f526567697374726174696f6e206f6620766f74657273206973206e6f7420616c60008201527f6c6f77656420617420746869732073746167652e000000000000000000000000602082015250565b6000613e1f603483612b40565b9150613e2a82613dc3565b604082019050919050565b60006020820190508181036000830152613e4e81613e12565b9050919050565b7f566f74657220697320616c726561647920726567697374657265642e00000000600082015250565b6000613e8b601c83612b40565b9150613e9682613e55565b602082019050919050565b60006020820190508181036000830152613eba81613e7e565b9050919050565b7f5468697320766f74657220686173206e6f7420766f746564207965742e000000600082015250565b6000613ef7601d83612b40565b9150613f0282613ec1565b602082019050919050565b60006020820190508181036000830152613f2681613eea565b9050919050565b7f596f75206861766520616c7265616479206162737461696e65642e0000000000600082015250565b6000613f63601b83612b40565b9150613f6e82613f2d565b602082019050919050565b60006020820190508181036000830152613f9281613f56565b9050919050565b7f43616e6e6f742070726f636565642061667465722066696e616c2074616c6c7960008201527f2e00000000000000000000000000000000000000000000000000000000000000602082015250565b6000613ff5602183612b40565b915061400082613f99565b604082019050919050565b6000602082019050818103600083015261402481613fe8565b9050919050565b600061403682612ad2565b915061404183612ad2565b9250828201905080821115614059576140586136c1565b5b92915050565b7f566f746572206973206e6f7420726567697374657265642e0000000000000000600082015250565b6000614095601883612b40565b91506140a08261405f565b602082019050919050565b600060208201905081810360008301526140c481614088565b9050919050565b7f4e487b7100000000000000000000000000000000000000000000000000000000600052603160045260246000fd5b7f50726f706f73616c20646f6573206e6f742065786973742e0000000000000000600082015250565b6000614130601883612b40565b915061413b826140fa565b602082019050919050565b6000602082019050818103600083015261415f81614123565b9050919050565b7f566f74657320617265206e6f742074616c6c696564207965742e000000000000600082015250565b600061419c601a83612b40565b91506141a782614166565b602082019050919050565b600060208201905081810360008301526141cb8161418f565b9050919050565b7f596f752068617665206e6f7420766f746564207965742e000000000000000000600082015250565b6000614208601783612b40565b9150614213826141d2565b602082019050919050565b60006020820190508181036000830152614237816141fb565b9050919050565b600061424982612ad2565b91506000820361425c5761425b6136c1565b5b60018203905091905056fea2646970667358221220e626b7d80f4a139c333bce213419cedc0ce7ae45270cd6e3e95bb1f0a5f1f84464736f6c63430008140033",
  "linkReferences": {},
  "deployedLinkReferences": {}
}