{
  "_format": "hh-sol-artifact-1",
  "contractName": "Voting",
  "sourceName": "contracts/Voting.sol",
  "abi": [
    {
      "inputs": [],
      "stateMutability": "nonpayable",
      "type": "constructor"
    },
    {
      "inputs": [
        {
          "internalType": "address",
          "name": "owner",
          "type": "address"
        }
      ],
      "name": "OwnableInvalidOwner",
      "type": "error"
    },
    {
      "inputs": [
        {
          "internalType": "address",
          "name": "account",
          "type": "address"
        }
      ],
      "name": "OwnableUnauthorizedAccount",
      "type": "error"
    },
    {
      "anonymous": false,
      "inputs": [
        {
          "indexed": true,
          "internalType": "address",
          "name": "voter",
          "type": "address"
        }
      ],
      "name": "Abstained",
      "type": "event"
    },
    {
      "anonymous": false,
      "inputs": [
        {
          "indexed": true,
          "internalType": "address",
          "name": "previousOwner",
          "type": "address"
        },
        {
          "indexed": true,
          "internalType": "address",
          "name": "newOwner",
          "type": "address"
        }
      ],
      "name": "OwnershipTransferred",
      "type": "event"
    },
    {
      "anonymous": false,
      "inputs": [
        {
          "indexed": true,
          "internalType": "uint256",
          "name": "proposalId",
          "type": "uint256"
        }
      ],
      "name": "ProposalRegistered",
      "type": "event"
    },
    {
      "anonymous": false,
      "inputs": [
        {
          "indexed": false,
          "internalType": "uint256",
          "name": "winningProposalId",
          "type": "uint256"
        },
        {
          "indexed": false,
          "internalType": "string",
          "name": "description",
          "type": "string"
        },
        {
          "indexed": false,
          "internalType": "uint256",
          "name": "voteCount",
          "type": "uint256"
        }
      ],
      "name": "VoteTallied",
      "type": "event"
    },
    {
      "anonymous": false,
      "inputs": [
        {
          "indexed": true,
          "internalType": "address",
          "name": "voter",
          "type": "address"
        },
        {
          "indexed": true,
          "internalType": "uint256",
          "name": "newProposalId",
          "type": "uint256"
        }
      ],
      "name": "VoteUpdated",
      "type": "event"
    },
    {
      "anonymous": false,
      "inputs": [
        {
          "indexed": true,
          "internalType": "address",
          "name": "voter",
          "type": "address"
        },
        {
          "indexed": true,
          "internalType": "uint256",
          "name": "proposalId",
          "type": "uint256"
        }
      ],
      "name": "Voted",
      "type": "event"
    },
    {
      "anonymous": false,
      "inputs": [
        {
          "indexed": true,
          "internalType": "address",
          "name": "voterAddress",
          "type": "address"
        }
      ],
      "name": "VoterRegistered",
      "type": "event"
    },
    {
      "anonymous": false,
      "inputs": [
        {
          "indexed": true,
          "internalType": "address",
          "name": "voterAddress",
          "type": "address"
        }
      ],
      "name": "VoterRemoved",
      "type": "event"
    },
    {
      "anonymous": false,
      "inputs": [
        {
          "indexed": false,
          "internalType": "enum Voting.WorkflowStatus",
          "name": "previousStatus",
          "type": "uint8"
        },
        {
          "indexed": false,
          "internalType": "enum Voting.WorkflowStatus",
          "name": "newStatus",
          "type": "uint8"
        }
      ],
      "name": "WorkflowStatusChange",
      "type": "event"
    },
    {
      "inputs": [],
      "name": "abstain",
      "outputs": [],
      "stateMutability": "nonpayable",
      "type": "function"
    },
    {
      "inputs": [],
      "name": "abstentionsCount",
      "outputs": [
        {
          "internalType": "uint256",
          "name": "",
          "type": "uint256"
        }
      ],
      "stateMutability": "view",
      "type": "function"
    },
    {
      "inputs": [],
      "name": "getAllProposals",
      "outputs": [
        {
          "components": [
            {
              "internalType": "string",
              "name": "description",
              "type": "string"
            },
            {
              "internalType": "uint256",
              "name": "voteCount",
              "type": "uint256"
            }
          ],
          "internalType": "struct Voting.Proposal[]",
          "name": "",
          "type": "tuple[]"
        }
      ],
      "stateMutability": "view",
      "type": "function"
    },
    {
      "inputs": [],
      "name": "getAllVoters",
      "outputs": [
        {
          "internalType": "address[]",
          "name": "",
          "type": "address[]"
        }
      ],
      "stateMutability": "view",
      "type": "function"
    },
    {
      "inputs": [
        {
          "internalType": "uint256",
          "name": "_id",
          "type": "uint256"
        }
      ],
      "name": "getOneProposal",
      "outputs": [
        {
          "components": [
            {
              "internalType": "string",
              "name": "description",
              "type": "string"
            },
            {
              "internalType": "uint256",
              "name": "voteCount",
              "type": "uint256"
            }
          ],
          "internalType": "struct Voting.Proposal",
          "name": "",
          "type": "tuple"
        }
      ],
      "stateMutability": "view",
      "type": "function"
    },
    {
      "inputs": [],
      "name": "getPastResults",
      "outputs": [
        {
          "components": [
            {
              "internalType": "uint256",
              "name": "winningProposalId",
              "type": "uint256"
            },
            {
              "internalType": "string",
              "name": "winningProposalDescription",
              "type": "string"
            },
            {
              "internalType": "uint256",
              "name": "winningVoteCount",
              "type": "uint256"
            },
            {
              "internalType": "uint256",
              "name": "totalProposals",
              "type": "uint256"
            }
          ],
          "internalType": "struct Voting.VotingResult[]",
          "name": "",
          "type": "tuple[]"
        }
      ],
      "stateMutability": "view",
      "type": "function"
    },
    {
      "inputs": [
        {
          "internalType": "address",
          "name": "_addr",
          "type": "address"
        }
      ],
      "name": "getVoter",
      "outputs": [
        {
          "components": [
            {
              "internalType": "bool",
              "name": "isRegistered",
              "type": "bool"
            },
            {
              "internalType": "bool",
              "name": "hasVoted",
              "type": "bool"
            },
            {
              "internalType": "bool",
              "name": "hasAbstained",
              "type": "bool"
            },
            {
              "internalType": "uint256",
              "name": "votedProposalId",
              "type": "uint256"
            }
          ],
          "internalType": "struct Voting.Voter",
          "name": "",
          "type": "tuple"
        }
      ],
      "stateMutability": "view",
      "type": "function"
    },
    {
      "inputs": [
        {
          "internalType": "address",
          "name": "_addr",
          "type": "address"
        }
      ],
      "name": "getVoterVote",
      "outputs": [
        {
          "internalType": "uint256",
          "name": "",
          "type": "uint256"
        }
      ],
      "stateMutability": "view",
      "type": "function"
    },
    {
      "inputs": [],
      "name": "getWinners",
      "outputs": [
        {
          "components": [
            {
              "internalType": "string",
              "name": "description",
              "type": "string"
            },
            {
              "internalType": "uint256",
              "name": "voteCount",
              "type": "uint256"
            }
          ],
          "internalType": "struct Voting.Proposal[]",
          "name": "",
          "type": "tuple[]"
        }
      ],
      "stateMutability": "view",
      "type": "function"
    },
    {
      "inputs": [],
      "name": "hasVoted",
      "outputs": [
        {
          "internalType": "bool",
          "name": "",
          "type": "bool"
        }
      ],
      "stateMutability": "view",
      "type": "function"
    },
    {
      "inputs": [
        {
          "internalType": "address",
          "name": "_addr",
          "type": "address"
        }
      ],
      "name": "isRegisteredVoter",
      "outputs": [
        {
          "internalType": "bool",
          "name": "",
          "type": "bool"
        }
      ],
      "stateMutability": "view",
      "type": "function"
    },
    {
      "inputs": [],
      "name": "nextWorkflowStatus",
      "outputs": [],
      "stateMutability": "nonpayable",
      "type": "function"
    },
    {
      "inputs": [],
      "name": "owner",
      "outputs": [
        {
          "internalType": "address",
          "name": "",
          "type": "address"
        }
      ],
      "stateMutability": "view",
      "type": "function"
    },
    {
      "inputs": [
        {
          "internalType": "uint256",
          "name": "",
          "type": "uint256"
        }
      ],
      "name": "pastResults",
      "outputs": [
        {
          "internalType": "uint256",
          "name": "winningProposalId",
          "type": "uint256"
        },
        {
          "internalType": "string",
          "name": "winningProposalDescription",
          "type": "string"
        },
        {
          "internalType": "uint256",
          "name": "winningVoteCount",
          "type": "uint256"
        },
        {
          "internalType": "uint256",
          "name": "totalProposals",
          "type": "uint256"
        }
      ],
      "stateMutability": "view",
      "type": "function"
    },
    {
      "inputs": [
        {
          "internalType": "uint256",
          "name": "",
          "type": "uint256"
        }
      ],
      "name": "proposals",
      "outputs": [
        {
          "internalType": "string",
          "name": "description",
          "type": "string"
        },
        {
          "internalType": "uint256",
          "name": "voteCount",
          "type": "uint256"
        }
      ],
      "stateMutability": "view",
      "type": "function"
    },
    {
      "inputs": [
        {
          "internalType": "string",
          "name": "_description",
          "type": "string"
        }
      ],
      "name": "registerProposal",
      "outputs": [],
      "stateMutability": "nonpayable",
      "type": "function"
    },
    {
      "inputs": [
        {
          "internalType": "address",
          "name": "_voterAddress",
          "type": "address"
        }
      ],
      "name": "registerVoter",
      "outputs": [],
      "stateMutability": "nonpayable",
      "type": "function"
    },
    {
      "inputs": [
        {
          "internalType": "address",
          "name": "_voterAddress",
          "type": "address"
        }
      ],
      "name": "removeVoter",
      "outputs": [],
      "stateMutability": "nonpayable",
      "type": "function"
    },
    {
      "inputs": [],
      "name": "renounceOwnership",
      "outputs": [],
      "stateMutability": "nonpayable",
      "type": "function"
    },
    {
      "inputs": [],
      "name": "tallyVotes",
      "outputs": [],
      "stateMutability": "nonpayable",
      "type": "function"
    },
    {
      "inputs": [
        {
          "internalType": "address",
          "name": "newOwner",
          "type": "address"
        }
      ],
      "name": "transferOwnership",
      "outputs": [],
      "stateMutability": "nonpayable",
      "type": "function"
    },
    {
      "inputs": [
        {
          "internalType": "uint256",
          "name": "_newProposalId",
          "type": "uint256"
        }
      ],
      "name": "updateVote",
      "outputs": [],
      "stateMutability": "nonpayable",
      "type": "function"
    },
    {
      "inputs": [
        {
          "internalType": "uint256",
          "name": "_proposalId",
          "type": "uint256"
        }
      ],
      "name": "vote",
      "outputs": [],
      "stateMutability": "nonpayable",
      "type": "function"
    },
    {
      "inputs": [
        {
          "internalType": "uint256",
          "name": "",
          "type": "uint256"
        }
      ],
      "name": "voterAddresses",
      "outputs": [
        {
          "internalType": "address",
          "name": "",
          "type": "address"
        }
      ],
      "stateMutability": "view",
      "type": "function"
    },
    {
      "inputs": [
        {
          "internalType": "address",
          "name": "",
          "type": "address"
        }
      ],
      "name": "voters",
      "outputs": [
        {
          "internalType": "bool",
          "name": "isRegistered",
          "type": "bool"
        },
        {
          "internalType": "bool",
          "name": "hasVoted",
          "type": "bool"
        },
        {
          "internalType": "bool",
          "name": "hasAbstained",
          "type": "bool"
        },
        {
          "internalType": "uint256",
          "name": "votedProposalId",
          "type": "uint256"
        }
      ],
      "stateMutability": "view",
      "type": "function"
    },
    {
      "inputs": [],
      "name": "winningProposalId",
      "outputs": [
        {
          "internalType": "uint256",
          "name": "",
          "type": "uint256"
        }
      ],
      "stateMutability": "view",
      "type": "function"
    },
    {
      "inputs": [
        {
          "internalType": "uint256",
          "name": "",
          "type": "uint256"
        }
      ],
      "name": "winningProposals",
      "outputs": [
        {
          "internalType": "string",
          "name": "description",
          "type": "string"
        },
        {
          "internalType": "uint256",
          "name": "voteCount",
          "type": "uint256"
        }
      ],
      "stateMutability": "view",
      "type": "function"
    },
    {
      "inputs": [],
      "name": "workflowStatus",
      "outputs": [
        {
          "internalType": "enum Voting.WorkflowStatus",
          "name": "",
          "type": "uint8"
        }
      ],
      "stateMutability": "view",
      "type": "function"
    }
  ],
  "bytecode": "0x60806040523480156200001157600080fd5b5033600073ffffffffffffffffffffffffffffffffffffffff168173ffffffffffffffffffffffffffffffffffffffff1603620000885760006040517f1e4fbdf70000000000000000000000000000000000000000000000000000000081526004016200007f9190620002d7565b60405180910390fd5b6200009981620001ce60201b60201c565b506000600660006101000a81548160ff02191690836005811115620000c357620000c2620002f4565b5b021790555060018060003373ffffffffffffffffffffffffffffffffffffffff1673ffffffffffffffffffffffffffffffffffffffff16815260200190815260200160002060000160006101000a81548160ff0219169083151502179055506008339080600181540180825580915050600190039060005260206000200160009091909190916101000a81548173ffffffffffffffffffffffffffffffffffffffff021916908373ffffffffffffffffffffffffffffffffffffffff1602179055503373ffffffffffffffffffffffffffffffffffffffff167fb6be2187d059cc2a55fe29e0e503b566e1e0f8c8780096e185429350acffd3dd60405160405180910390a262000323565b60008060009054906101000a900473ffffffffffffffffffffffffffffffffffffffff169050816000806101000a81548173ffffffffffffffffffffffffffffffffffffffff021916908373ffffffffffffffffffffffffffffffffffffffff1602179055508173ffffffffffffffffffffffffffffffffffffffff168173ffffffffffffffffffffffffffffffffffffffff167f8be0079c531659141344cd1fd0a4f28419497f9722a3daafe3b4186f6b6457e060405160405180910390a35050565b600073ffffffffffffffffffffffffffffffffffffffff82169050919050565b6000620002bf8262000292565b9050919050565b620002d181620002b2565b82525050565b6000602082019050620002ee6000830184620002c6565b92915050565b7f4e487b7100000000000000000000000000000000000000000000000000000000600052602160045260246000fd5b6142c380620003336000396000f3fe608060405234801561001057600080fd5b50600436106101c45760003560e01c80638da5cb5b116100f9578063d4f50f9811610097578063df15c37e11610071578063df15c37e146104d6578063e576ee28146104f4578063ee977f7714610527578063f2fde38b14610543576101c4565b8063d4f50f9814610446578063da36cffe14610476578063dd0e2373146104a6576101c4565b8063a3ec138d116100d3578063a3ec138d146103b9578063c64963c5146103ec578063ccc34c231461040a578063cceb68f514610428576101c4565b80638da5cb5b1461034d578063a1edffa21461036b578063a2788cce14610389576101c4565b80635e98e4c711610166578063754062841161014057806375406284146102d8578063806d7bd7146102e257806386c1ff68146103135780638997154d1461032f576101c4565b80635e98e4c7146102a657806364821338146102b0578063715018a6146102ce576101c4565b806335bbe70e116101a257806335bbe70e14610232578063378a21781461025057806338db6dd31461025a5780635141e52014610276576101c4565b80630121b93f146101c9578063013cf08b146101e55780632f95355b14610216575b600080fd5b6101e360048036038101906101de9190612b2e565b61055f565b005b6101ff60048036038101906101fa9190612b2e565b6108ee565b60405161020d929190612bfa565b60405180910390f35b610230600480360381019061022b9190612d5f565b6109aa565b005b61023a610b97565b6040516102479190612e98565b60405180910390f35b610258610c25565b005b610274600480360381019061026f9190612ee6565b6110d5565b005b610290600480360381019061028b9190612ee6565b6112e6565b60405161029d9190612f13565b60405180910390f35b6102ae611450565b005b6102b861172c565b6040516102c59190612f49565b60405180910390f35b6102d6611783565b005b6102e0611797565b005b6102fc60048036038101906102f79190612b2e565b6118dc565b60405161030a929190612bfa565b60405180910390f35b61032d60048036038101906103289190612ee6565b611998565b005b610337611c88565b60405161034491906130e2565b60405180910390f35b610355611d97565b6040516103629190613113565b60405180910390f35b610373611dc0565b60405161038091906131a5565b60405180910390f35b6103a3600480360381019061039e9190612b2e565b611dd3565b6040516103b091906131fd565b60405180910390f35b6103d360048036038101906103ce9190612ee6565b611f81565b6040516103e3949392919061321f565b60405180910390f35b6103f4611fd8565b6040516104019190612f13565b60405180910390f35b610412611fde565b60405161041f9190612f13565b60405180910390f35b610430611fe4565b60405161043d9190613363565b60405180910390f35b610460600480360381019061045b9190612ee6565b6120df565b60405161046d91906133e9565b60405180910390f35b610490600480360381019061048b9190612ee6565b612222565b60405161049d9190612f49565b60405180910390f35b6104c060048036038101906104bb9190612b2e565b61227b565b6040516104cd9190613113565b60405180910390f35b6104de6122ba565b6040516104eb9190613363565b60405180910390f35b61050e60048036038101906105099190612b2e565b61242a565b60405161051e9493929190613404565b60405180910390f35b610541600480360381019061053c9190612b2e565b6124f2565b005b61055d60048036038101906105589190612ee6565b612813565b005b600360058111156105735761057261312e565b5b600660009054906101000a900460ff1660058111156105955761059461312e565b5b146105d5576040517f08c379a00000000000000000000000000000000000000000000000000000000081526004016105cc9061349c565b60405180910390fd5b600160003373ffffffffffffffffffffffffffffffffffffffff1673ffffffffffffffffffffffffffffffffffffffff16815260200190815260200160002060000160009054906101000a900460ff16610664576040517f08c379a000000000000000000000000000000000000000000000000000000000815260040161065b9061352e565b60405180910390fd5b60028054905081106106ab576040517f08c379a00000000000000000000000000000000000000000000000000000000081526004016106a29061359a565b60405180910390fd5b600160003373ffffffffffffffffffffffffffffffffffffffff1673ffffffffffffffffffffffffffffffffffffffff16815260200190815260200160002060000160019054906101000a900460ff161561073b576040517f08c379a000000000000000000000000000000000000000000000000000000000815260040161073290613606565b60405180910390fd5b600160003373ffffffffffffffffffffffffffffffffffffffff1673ffffffffffffffffffffffffffffffffffffffff16815260200190815260200160002060000160029054906101000a900460ff16156107cb576040517f08c379a00000000000000000000000000000000000000000000000000000000081526004016107c290613698565b60405180910390fd5b600281815481106107df576107de6136b8565b5b9060005260206000209060020201600101600081548092919061080190613716565b919050555060018060003373ffffffffffffffffffffffffffffffffffffffff1673ffffffffffffffffffffffffffffffffffffffff16815260200190815260200160002060000160016101000a81548160ff02191690831515021790555080600160003373ffffffffffffffffffffffffffffffffffffffff1673ffffffffffffffffffffffffffffffffffffffff16815260200190815260200160002060010181905550803373ffffffffffffffffffffffffffffffffffffffff167f4d99b957a2bc29a30ebd96a7be8e68fe50a3c701db28a91436490b7d53870ca460405160405180910390a350565b600281815481106108fe57600080fd5b90600052602060002090600202016000915090508060000180546109219061378d565b80601f016020809104026020016040519081016040528092919081815260200182805461094d9061378d565b801561099a5780601f1061096f5761010080835404028352916020019161099a565b820191906000526020600020905b81548152906001019060200180831161097d57829003601f168201915b5050505050908060010154905082565b600160003373ffffffffffffffffffffffffffffffffffffffff1673ffffffffffffffffffffffffffffffffffffffff16815260200190815260200160002060000160009054906101000a900460ff16610a39576040517f08c379a0000000000000000000000000000000000000000000000000000000008152600401610a309061352e565b60405180910390fd5b60016005811115610a4d57610a4c61312e565b5b600660009054906101000a900460ff166005811115610a6f57610a6e61312e565b5b14610aaf576040517f08c379a0000000000000000000000000000000000000000000000000000000008152600401610aa69061380a565b60405180910390fd5b6000815111610af3576040517f08c379a0000000000000000000000000000000000000000000000000000000008152600401610aea9061389c565b60405180910390fd5b60026040518060400160405280838152602001600081525090806001815401808255809150506001900390600052602060002090600202016000909190919091506000820151816000019081610b499190613a68565b506020820151816001015550506001600280549050610b689190613b3a565b7f92e393e9b54e2f801d3ea4beb0c5e71a21cc34a5d34b77d0fb8a3aa1650dc18f60405160405180910390a250565b60606008805480602002602001604051908101604052809291908181526020018280548015610c1b57602002820191906000526020600020905b8160009054906101000a900473ffffffffffffffffffffffffffffffffffffffff1673ffffffffffffffffffffffffffffffffffffffff1681526020019060010190808311610bd1575b5050505050905090565b610c2d612899565b60046005811115610c4157610c4061312e565b5b600660009054906101000a900460ff166005811115610c6357610c6261312e565b5b14610ca3576040517f08c379a0000000000000000000000000000000000000000000000000000000008152600401610c9a90613be0565b60405180910390fd5b600060056000610cb391906129ec565b60005b600280549050811015610e55578160028281548110610cd857610cd76136b8565b5b9060005260206000209060020201600101541115610d995760028181548110610d0457610d036136b8565b5b906000526020600020906002020160010154915060056000610d2691906129ec565b600560028281548110610d3c57610d3b6136b8565b5b9060005260206000209060020201908060018154018082558091505060019003906000526020600020906002020160009091909190915060008201816000019081610d879190613c16565b50600182015481600101555050610e42565b8160028281548110610dae57610dad6136b8565b5b906000526020600020906002020160010154148015610dcd5750600082115b15610e4157600560028281548110610de857610de76136b8565b5b9060005260206000209060020201908060018154018082558091505060019003906000526020600020906002020160009091909190915060008201816000019081610e339190613c16565b506001820154816001015550505b5b8080610e4d90613716565b915050610cb6565b50600060058054905011610e6a576000610e7d565b6001600280549050610e7c9190613b3a565b5b600381905550600760405180608001604052806003548152602001600260035481548110610eae57610ead6136b8565b5b90600052602060002090600202016000018054610eca9061378d565b80601f0160208091040260200160405190810160405280929190818152602001828054610ef69061378d565b8015610f435780601f10610f1857610100808354040283529160200191610f43565b820191906000526020600020905b815481529060010190602001808311610f2657829003601f168201915b50505050508152602001600260035481548110610f6357610f626136b8565b5b90600052602060002090600202016001015481526020016002805490508152509080600181540180825580915050600190039060005260206000209060040201600090919091909150600082015181600001556020820151816001019081610fcb9190613a68565b50604082015181600201556060820151816003015550506005600660006101000a81548160ff021916908360058111156110085761100761312e565b5b02179055507f0a97a4ee45751e2abf3e4fc8946939630b11b371ea8ae39ccdc3056e98f5cc3f60046005604051611040929190613cfe565b60405180910390a17f29c84247a2e59d1ca62c2379faaf0b5fee8ea09aacb293756f3d92fe6e4223f5600354600260035481548110611082576110816136b8565b5b90600052602060002090600202016000016002600354815481106110a9576110a86136b8565b5b9060005260206000209060020201600101546040516110ca93929190613dab565b60405180910390a150565b6110dd612899565b600060058111156110f1576110f061312e565b5b600660009054906101000a900460ff1660058111156111135761111261312e565b5b14611153576040517f08c379a000000000000000000000000000000000000000000000000000000000815260040161114a90613e5b565b60405180910390fd5b600160008273ffffffffffffffffffffffffffffffffffffffff1673ffffffffffffffffffffffffffffffffffffffff16815260200190815260200160002060000160009054906101000a900460ff16156111e3576040517f08c379a00000000000000000000000000000000000000000000000000000000081526004016111da90613ec7565b60405180910390fd5b60018060008373ffffffffffffffffffffffffffffffffffffffff1673ffffffffffffffffffffffffffffffffffffffff16815260200190815260200160002060000160006101000a81548160ff0219169083151502179055506008819080600181540180825580915050600190039060005260206000200160009091909190916101000a81548173ffffffffffffffffffffffffffffffffffffffff021916908373ffffffffffffffffffffffffffffffffffffffff1602179055508073ffffffffffffffffffffffffffffffffffffffff167fb6be2187d059cc2a55fe29e0e503b566e1e0f8c8780096e185429350acffd3dd60405160405180910390a250565b6000600160003373ffffffffffffffffffffffffffffffffffffffff1673ffffffffffffffffffffffffffffffffffffffff16815260200190815260200160002060000160009054906101000a900460ff16611377576040517f08c379a000000000000000000000000000000000000000000000000000000000815260040161136e9061352e565b60405180910390fd5b600160008373ffffffffffffffffffffffffffffffffffffffff1673ffffffffffffffffffffffffffffffffffffffff16815260200190815260200160002060000160019054906101000a900460ff16611406576040517f08c379a00000000000000000000000000000000000000000000000000000000081526004016113fd90613f33565b60405180910390fd5b600160008373ffffffffffffffffffffffffffffffffffffffff1673ffffffffffffffffffffffffffffffffffffffff168152602001908152602001600020600101549050919050565b600360058111156114645761146361312e565b5b600660009054906101000a900460ff1660058111156114865761148561312e565b5b146114c6576040517f08c379a00000000000000000000000000000000000000000000000000000000081526004016114bd9061349c565b60405180910390fd5b600160003373ffffffffffffffffffffffffffffffffffffffff1673ffffffffffffffffffffffffffffffffffffffff16815260200190815260200160002060000160009054906101000a900460ff16611555576040517f08c379a000000000000000000000000000000000000000000000000000000000815260040161154c9061352e565b60405180910390fd5b600160003373ffffffffffffffffffffffffffffffffffffffff1673ffffffffffffffffffffffffffffffffffffffff16815260200190815260200160002060000160019054906101000a900460ff16156115e5576040517f08c379a00000000000000000000000000000000000000000000000000000000081526004016115dc90613606565b60405180910390fd5b600160003373ffffffffffffffffffffffffffffffffffffffff1673ffffffffffffffffffffffffffffffffffffffff16815260200190815260200160002060000160029054906101000a900460ff1615611675576040517f08c379a000000000000000000000000000000000000000000000000000000000815260040161166c90613f9f565b60405180910390fd5b60018060003373ffffffffffffffffffffffffffffffffffffffff1673ffffffffffffffffffffffffffffffffffffffff16815260200190815260200160002060000160026101000a81548160ff021916908315150217905550600460008154809291906116e290613716565b91905055503373ffffffffffffffffffffffffffffffffffffffff167fcec4b249e8fa3a9849f65da74ce51251c4e51de3e4abfcd282cef58f212f609f60405160405180910390a2565b6000600160003373ffffffffffffffffffffffffffffffffffffffff1673ffffffffffffffffffffffffffffffffffffffff16815260200190815260200160002060000160019054906101000a900460ff16905090565b61178b612899565b6117956000612920565b565b61179f612899565b6005808111156117b2576117b161312e565b5b600660009054906101000a900460ff1660058111156117d4576117d361312e565b5b03611814576040517f08c379a000000000000000000000000000000000000000000000000000000000815260040161180b90614031565b60405180910390fd5b6000600660009054906101000a900460ff1690506001600660009054906101000a900460ff16600581111561184c5761184b61312e565b5b6118569190614051565b60058111156118685761186761312e565b5b600660006101000a81548160ff0219169083600581111561188c5761188b61312e565b5b02179055507f0a97a4ee45751e2abf3e4fc8946939630b11b371ea8ae39ccdc3056e98f5cc3f81600660009054906101000a900460ff166040516118d1929190613cfe565b60405180910390a150565b600581815481106118ec57600080fd5b906000526020600020906002020160009150905080600001805461190f9061378d565b80601f016020809104026020016040519081016040528092919081815260200182805461193b9061378d565b80156119885780601f1061195d57610100808354040283529160200191611988565b820191906000526020600020905b81548152906001019060200180831161196b57829003601f168201915b5050505050908060010154905082565b6119a0612899565b600160008273ffffffffffffffffffffffffffffffffffffffff1673ffffffffffffffffffffffffffffffffffffffff16815260200190815260200160002060000160009054906101000a900460ff16611a2f576040517f08c379a0000000000000000000000000000000000000000000000000000000008152600401611a26906140d1565b60405180910390fd5b600160008273ffffffffffffffffffffffffffffffffffffffff1673ffffffffffffffffffffffffffffffffffffffff168152602001908152602001600020600080820160006101000a81549060ff02191690556000820160016101000a81549060ff02191690556000820160026101000a81549060ff02191690556001820160009055505060005b600880549050811015611c41578173ffffffffffffffffffffffffffffffffffffffff1660088281548110611af057611aef6136b8565b5b9060005260206000200160009054906101000a900473ffffffffffffffffffffffffffffffffffffffff1673ffffffffffffffffffffffffffffffffffffffff1603611c2e5760086001600880549050611b4a9190613b3a565b81548110611b5b57611b5a6136b8565b5b9060005260206000200160009054906101000a900473ffffffffffffffffffffffffffffffffffffffff1660088281548110611b9a57611b996136b8565b5b9060005260206000200160006101000a81548173ffffffffffffffffffffffffffffffffffffffff021916908373ffffffffffffffffffffffffffffffffffffffff1602179055506008805480611bf457611bf36140f1565b5b6001900381819060005260206000200160006101000a81549073ffffffffffffffffffffffffffffffffffffffff02191690559055611c41565b8080611c3990613716565b915050611ab8565b508073ffffffffffffffffffffffffffffffffffffffff167fa14a79af012d1756818f9bd59ccfc9ad185a71df86b9392d9059d9e6faf6d64460405160405180910390a250565b60606007805480602002602001604051908101604052809291908181526020016000905b82821015611d8e578382906000526020600020906004020160405180608001604052908160008201548152602001600182018054611ce99061378d565b80601f0160208091040260200160405190810160405280929190818152602001828054611d159061378d565b8015611d625780601f10611d3757610100808354040283529160200191611d62565b820191906000526020600020905b815481529060010190602001808311611d4557829003601f168201915b505050505081526020016002820154815260200160038201548152505081526020019060010190611cac565b50505050905090565b60008060009054906101000a900473ffffffffffffffffffffffffffffffffffffffff16905090565b600660009054906101000a900460ff1681565b611ddb612a10565b600160003373ffffffffffffffffffffffffffffffffffffffff1673ffffffffffffffffffffffffffffffffffffffff16815260200190815260200160002060000160009054906101000a900460ff16611e6a576040517f08c379a0000000000000000000000000000000000000000000000000000000008152600401611e619061352e565b60405180910390fd5b6002805490508210611eb1576040517f08c379a0000000000000000000000000000000000000000000000000000000008152600401611ea89061416c565b60405180910390fd5b60028281548110611ec557611ec46136b8565b5b9060005260206000209060020201604051806040016040529081600082018054611eee9061378d565b80601f0160208091040260200160405190810160405280929190818152602001828054611f1a9061378d565b8015611f675780601f10611f3c57610100808354040283529160200191611f67565b820191906000526020600020905b815481529060010190602001808311611f4a57829003601f168201915b505050505081526020016001820154815250509050919050565b60016020528060005260406000206000915090508060000160009054906101000a900460ff16908060000160019054906101000a900460ff16908060000160029054906101000a900460ff16908060010154905084565b60035481565b60045481565b60606002805480602002602001604051908101604052809291908181526020016000905b828210156120d6578382906000526020600020906002020160405180604001604052908160008201805461203b9061378d565b80601f01602080910402602001604051908101604052809291908181526020018280546120679061378d565b80156120b45780601f10612089576101008083540402835291602001916120b4565b820191906000526020600020905b81548152906001019060200180831161209757829003601f168201915b5050505050815260200160018201548152505081526020019060010190612008565b50505050905090565b6120e7612a2a565b600160003373ffffffffffffffffffffffffffffffffffffffff1673ffffffffffffffffffffffffffffffffffffffff16815260200190815260200160002060000160009054906101000a900460ff16612176576040517f08c379a000000000000000000000000000000000000000000000000000000000815260040161216d9061352e565b60405180910390fd5b600160008373ffffffffffffffffffffffffffffffffffffffff1673ffffffffffffffffffffffffffffffffffffffff1681526020019081526020016000206040518060800160405290816000820160009054906101000a900460ff161515151581526020016000820160019054906101000a900460ff161515151581526020016000820160029054906101000a900460ff161515151581526020016001820154815250509050919050565b6000600160008373ffffffffffffffffffffffffffffffffffffffff1673ffffffffffffffffffffffffffffffffffffffff16815260200190815260200160002060000160009054906101000a900460ff169050919050565b6008818154811061228b57600080fd5b906000526020600020016000915054906101000a900473ffffffffffffffffffffffffffffffffffffffff1681565b60606005808111156122cf576122ce61312e565b5b600660009054906101000a900460ff1660058111156122f1576122f061312e565b5b14612331576040517f08c379a0000000000000000000000000000000000000000000000000000000008152600401612328906141d8565b60405180910390fd5b6005805480602002602001604051908101604052809291908181526020016000905b8282101561242157838290600052602060002090600202016040518060400160405290816000820180546123869061378d565b80601f01602080910402602001604051908101604052809291908181526020018280546123b29061378d565b80156123ff5780601f106123d4576101008083540402835291602001916123ff565b820191906000526020600020905b8154815290600101906020018083116123e257829003601f168201915b5050505050815260200160018201548152505081526020019060010190612353565b50505050905090565b6007818154811061243a57600080fd5b90600052602060002090600402016000915090508060000154908060010180546124639061378d565b80601f016020809104026020016040519081016040528092919081815260200182805461248f9061378d565b80156124dc5780601f106124b1576101008083540402835291602001916124dc565b820191906000526020600020905b8154815290600101906020018083116124bf57829003601f168201915b5050505050908060020154908060030154905084565b600360058111156125065761250561312e565b5b600660009054906101000a900460ff1660058111156125285761252761312e565b5b14612568576040517f08c379a000000000000000000000000000000000000000000000000000000000815260040161255f9061349c565b60405180910390fd5b600160003373ffffffffffffffffffffffffffffffffffffffff1673ffffffffffffffffffffffffffffffffffffffff16815260200190815260200160002060000160009054906101000a900460ff166125f7576040517f08c379a00000000000000000000000000000000000000000000000000000000081526004016125ee9061352e565b60405180910390fd5b600160003373ffffffffffffffffffffffffffffffffffffffff1673ffffffffffffffffffffffffffffffffffffffff16815260200190815260200160002060000160019054906101000a900460ff16612686576040517f08c379a000000000000000000000000000000000000000000000000000000000815260040161267d90614244565b60405180910390fd5b60028054905081106126cd576040517f08c379a00000000000000000000000000000000000000000000000000000000081526004016126c49061359a565b60405180910390fd5b6002600160003373ffffffffffffffffffffffffffffffffffffffff1673ffffffffffffffffffffffffffffffffffffffff1681526020019081526020016000206001015481548110612723576127226136b8565b5b9060005260206000209060020201600101600081548092919061274590614264565b91905055506002818154811061275e5761275d6136b8565b5b9060005260206000209060020201600101600081548092919061278090613716565b919050555080600160003373ffffffffffffffffffffffffffffffffffffffff1673ffffffffffffffffffffffffffffffffffffffff16815260200190815260200160002060010181905550803373ffffffffffffffffffffffffffffffffffffffff167fe8706ccd15bd462676b1ac20273930c7b1c3fdb1bd9e702a1bae847e16572c7c60405160405180910390a350565b61281b612899565b600073ffffffffffffffffffffffffffffffffffffffff168173ffffffffffffffffffffffffffffffffffffffff160361288d5760006040517f1e4fbdf70000000000000000000000000000000000000000000000000000000081526004016128849190613113565b60405180910390fd5b61289681612920565b50565b6128a16129e4565b73ffffffffffffffffffffffffffffffffffffffff166128bf611d97565b73ffffffffffffffffffffffffffffffffffffffff161461291e576128e26129e4565b6040517f118cdaa70000000000000000000000000000000000000000000000000000000081526004016129159190613113565b60405180910390fd5b565b60008060009054906101000a900473ffffffffffffffffffffffffffffffffffffffff169050816000806101000a81548173ffffffffffffffffffffffffffffffffffffffff021916908373ffffffffffffffffffffffffffffffffffffffff1602179055508173ffffffffffffffffffffffffffffffffffffffff168173ffffffffffffffffffffffffffffffffffffffff167f8be0079c531659141344cd1fd0a4f28419497f9722a3daafe3b4186f6b6457e060405160405180910390a35050565b600033905090565b5080546000825560020290600052602060002090810190612a0d9190612a58565b50565b604051806040016040528060608152602001600081525090565b6040518060800160405280600015158152602001600015158152602001600015158152602001600081525090565b5b80821115612a835760008082016000612a729190612a87565b600182016000905550600201612a59565b5090565b508054612a939061378d565b6000825580601f10612aa55750612ac4565b601f016020900490600052602060002090810190612ac39190612ac7565b5b50565b5b80821115612ae0576000816000905550600101612ac8565b5090565b6000604051905090565b600080fd5b600080fd5b6000819050919050565b612b0b81612af8565b8114612b1657600080fd5b50565b600081359050612b2881612b02565b92915050565b600060208284031215612b4457612b43612aee565b5b6000612b5284828501612b19565b91505092915050565b600081519050919050565b600082825260208201905092915050565b60005b83811015612b95578082015181840152602081019050612b7a565b60008484015250505050565b6000601f19601f8301169050919050565b6000612bbd82612b5b565b612bc78185612b66565b9350612bd7818560208601612b77565b612be081612ba1565b840191505092915050565b612bf481612af8565b82525050565b60006040820190508181036000830152612c148185612bb2565b9050612c236020830184612beb565b9392505050565b600080fd5b600080fd5b7f4e487b7100000000000000000000000000000000000000000000000000000000600052604160045260246000fd5b612c6c82612ba1565b810181811067ffffffffffffffff82111715612c8b57612c8a612c34565b5b80604052505050565b6000612c9e612ae4565b9050612caa8282612c63565b919050565b600067ffffffffffffffff821115612cca57612cc9612c34565b5b612cd382612ba1565b9050602081019050919050565b82818337600083830152505050565b6000612d02612cfd84612caf565b612c94565b905082815260208101848484011115612d1e57612d1d612c2f565b5b612d29848285612ce0565b509392505050565b600082601f830112612d4657612d45612c2a565b5b8135612d56848260208601612cef565b91505092915050565b600060208284031215612d7557612d74612aee565b5b600082013567ffffffffffffffff811115612d9357612d92612af3565b5b612d9f84828501612d31565b91505092915050565b600081519050919050565b600082825260208201905092915050565b6000819050602082019050919050565b600073ffffffffffffffffffffffffffffffffffffffff82169050919050565b6000612dff82612dd4565b9050919050565b612e0f81612df4565b82525050565b6000612e218383612e06565b60208301905092915050565b6000602082019050919050565b6000612e4582612da8565b612e4f8185612db3565b9350612e5a83612dc4565b8060005b83811015612e8b578151612e728882612e15565b9750612e7d83612e2d565b925050600181019050612e5e565b5085935050505092915050565b60006020820190508181036000830152612eb28184612e3a565b905092915050565b612ec381612df4565b8114612ece57600080fd5b50565b600081359050612ee081612eba565b92915050565b600060208284031215612efc57612efb612aee565b5b6000612f0a84828501612ed1565b91505092915050565b6000602082019050612f286000830184612beb565b92915050565b60008115159050919050565b612f4381612f2e565b82525050565b6000602082019050612f5e6000830184612f3a565b92915050565b600081519050919050565b600082825260208201905092915050565b6000819050602082019050919050565b612f9981612af8565b82525050565b600082825260208201905092915050565b6000612fbb82612b5b565b612fc58185612f9f565b9350612fd5818560208601612b77565b612fde81612ba1565b840191505092915050565b60006080830160008301516130016000860182612f90565b50602083015184820360208601526130198282612fb0565b915050604083015161302e6040860182612f90565b5060608301516130416060860182612f90565b508091505092915050565b60006130588383612fe9565b905092915050565b6000602082019050919050565b600061307882612f64565b6130828185612f6f565b93508360208202850161309485612f80565b8060005b858110156130d057848403895281516130b1858261304c565b94506130bc83613060565b925060208a01995050600181019050613098565b50829750879550505050505092915050565b600060208201905081810360008301526130fc818461306d565b905092915050565b61310d81612df4565b82525050565b60006020820190506131286000830184613104565b92915050565b7f4e487b7100000000000000000000000000000000000000000000000000000000600052602160045260246000fd5b6006811061316e5761316d61312e565b5b50565b600081905061317f8261315d565b919050565b600061318f82613171565b9050919050565b61319f81613184565b82525050565b60006020820190506131ba6000830184613196565b92915050565b600060408301600083015184820360008601526131dd8282612fb0565b91505060208301516131f26020860182612f90565b508091505092915050565b6000602082019050818103600083015261321781846131c0565b905092915050565b60006080820190506132346000830187612f3a565b6132416020830186612f3a565b61324e6040830185612f3a565b61325b6060830184612beb565b95945050505050565b600081519050919050565b600082825260208201905092915050565b6000819050602082019050919050565b600060408301600083015184820360008601526132ad8282612fb0565b91505060208301516132c26020860182612f90565b508091505092915050565b60006132d98383613290565b905092915050565b6000602082019050919050565b60006132f982613264565b613303818561326f565b93508360208202850161331585613280565b8060005b85811015613351578484038952815161333285826132cd565b945061333d836132e1565b925060208a01995050600181019050613319565b50829750879550505050505092915050565b6000602082019050818103600083015261337d81846132ee565b905092915050565b61338e81612f2e565b82525050565b6080820160008201516133aa6000850182613385565b5060208201516133bd6020850182613385565b5060408201516133d06040850182613385565b5060608201516133e36060850182612f90565b50505050565b60006080820190506133fe6000830184613394565b92915050565b60006080820190506134196000830187612beb565b818103602083015261342b8186612bb2565b905061343a6040830185612beb565b6134476060830184612beb565b95945050505050565b7f566f74696e672073657373696f6e206973206e6f74206163746976652e000000600082015250565b6000613486601d83612b66565b915061349182613450565b602082019050919050565b600060208201905081810360008301526134b581613479565b9050919050565b7f596f7520617265206e6f742072656769737465726564206173206120766f746560008201527f722e000000000000000000000000000000000000000000000000000000000000602082015250565b6000613518602283612b66565b9150613523826134bc565b604082019050919050565b600060208201905081810360008301526135478161350b565b9050919050565b7f496e76616c69642070726f706f73616c2049442e000000000000000000000000600082015250565b6000613584601483612b66565b915061358f8261354e565b602082019050919050565b600060208201905081810360008301526135b381613577565b9050919050565b7f596f75206861766520616c726561647920766f7465642e000000000000000000600082015250565b60006135f0601783612b66565b91506135fb826135ba565b602082019050919050565b6000602082019050818103600083015261361f816135e3565b9050919050565b7f596f752068617665206162737461696e656420616e642063616e6e6f7420766f60008201527f74652e0000000000000000000000000000000000000000000000000000000000602082015250565b6000613682602383612b66565b915061368d82613626565b604082019050919050565b600060208201905081810360008301526136b181613675565b9050919050565b7f4e487b7100000000000000000000000000000000000000000000000000000000600052603260045260246000fd5b7f4e487b7100000000000000000000000000000000000000000000000000000000600052601160045260246000fd5b600061372182612af8565b91507fffffffffffffffffffffffffffffffffffffffffffffffffffffffffffffffff8203613753576137526136e7565b5b600182019050919050565b7f4e487b7100000000000000000000000000000000000000000000000000000000600052602260045260246000fd5b600060028204905060018216806137a557607f821691505b6020821081036137b8576137b761375e565b5b50919050565b7f50726f706f73616c7320617265206e6f7420616c6c6f776564207965742e0000600082015250565b60006137f4601e83612b66565b91506137ff826137be565b602082019050919050565b60006020820190508181036000830152613823816137e7565b9050919050565b7f50726f706f73616c206465736372697074696f6e2063616e6e6f74206265206560008201527f6d7074792e000000000000000000000000000000000000000000000000000000602082015250565b6000613886602583612b66565b91506138918261382a565b604082019050919050565b600060208201905081810360008301526138b581613879565b9050919050565b60008190508160005260206000209050919050565b60006020601f8301049050919050565b600082821b905092915050565b60006008830261391e7fffffffffffffffffffffffffffffffffffffffffffffffffffffffffffffffff826138e1565b61392886836138e1565b95508019841693508086168417925050509392505050565b6000819050919050565b600061396561396061395b84612af8565b613940565b612af8565b9050919050565b6000819050919050565b61397f8361394a565b61399361398b8261396c565b8484546138ee565b825550505050565b600090565b6139a861399b565b6139b3818484613976565b505050565b5b818110156139d7576139cc6000826139a0565b6001810190506139b9565b5050565b601f821115613a1c576139ed816138bc565b6139f6846138d1565b81016020851015613a05578190505b613a19613a11856138d1565b8301826139b8565b50505b505050565b600082821c905092915050565b6000613a3f60001984600802613a21565b1980831691505092915050565b6000613a588383613a2e565b9150826002028217905092915050565b613a7182612b5b565b67ffffffffffffffff811115613a8a57613a89612c34565b5b613a94825461378d565b613a9f8282856139db565b600060209050601f831160018114613ad25760008415613ac0578287015190505b613aca8582613a4c565b865550613b32565b601f198416613ae0866138bc565b60005b82811015613b0857848901518255600182019150602085019450602081019050613ae3565b86831015613b255784890151613b21601f891682613a2e565b8355505b6001600288020188555050505b505050505050565b6000613b4582612af8565b9150613b5083612af8565b9250828203905081811115613b6857613b676136e7565b5b92915050565b7f566f74696e672073657373696f6e20686173206e6f7420656e6465642079657460008201527f2e00000000000000000000000000000000000000000000000000000000000000602082015250565b6000613bca602183612b66565b9150613bd582613b6e565b604082019050919050565b60006020820190508181036000830152613bf981613bbd565b9050919050565b600081549050613c0f8161378d565b9050919050565b818103613c24575050613cfc565b613c2d82613c00565b67ffffffffffffffff811115613c4657613c45612c34565b5b613c50825461378d565b613c5b8282856139db565b6000601f831160018114613c8a5760008415613c78578287015490505b613c828582613a4c565b865550613cf5565b601f198416613c98876138bc565b9650613ca3866138bc565b60005b82811015613ccb57848901548255600182019150600185019450602081019050613ca6565b86831015613ce85784890154613ce4601f891682613a2e565b8355505b6001600288020188555050505b5050505050505b565b6000604082019050613d136000830185613196565b613d206020830184613196565b9392505050565b60008154613d348161378d565b613d3e8186612b66565b94506001821660008114613d595760018114613d6f57613da2565b60ff198316865281151560200286019350613da2565b613d78856138bc565b60005b83811015613d9a57815481890152600182019150602081019050613d7b565b808801955050505b50505092915050565b6000606082019050613dc06000830186612beb565b8181036020830152613dd28185613d27565b9050613de16040830184612beb565b949350505050565b7f526567697374726174696f6e206f6620766f74657273206973206e6f7420616c60008201527f6c6f77656420617420746869732073746167652e000000000000000000000000602082015250565b6000613e45603483612b66565b9150613e5082613de9565b604082019050919050565b60006020820190508181036000830152613e7481613e38565b9050919050565b7f566f74657220697320616c726561647920726567697374657265642e00000000600082015250565b6000613eb1601c83612b66565b9150613ebc82613e7b565b602082019050919050565b60006020820190508181036000830152613ee081613ea4565b9050919050565b7f5468697320766f74657220686173206e6f7420766f746564207965742e000000600082015250565b6000613f1d601d83612b66565b9150613f2882613ee7565b602082019050919050565b60006020820190508181036000830152613f4c81613f10565b9050919050565b7f596f75206861766520616c7265616479206162737461696e65642e0000000000600082015250565b6000613f89601b83612b66565b9150613f9482613f53565b602082019050919050565b60006020820190508181036000830152613fb881613f7c565b9050919050565b7f43616e6e6f742070726f636565642061667465722066696e616c2074616c6c7960008201527f2e00000000000000000000000000000000000000000000000000000000000000602082015250565b600061401b602183612b66565b915061402682613fbf565b604082019050919050565b6000602082019050818103600083015261404a8161400e565b9050919050565b600061405c82612af8565b915061406783612af8565b925082820190508082111561407f5761407e6136e7565b5b92915050565b7f566f746572206973206e6f7420726567697374657265642e0000000000000000600082015250565b60006140bb601883612b66565b91506140c682614085565b602082019050919050565b600060208201905081810360008301526140ea816140ae565b9050919050565b7f4e487b7100000000000000000000000000000000000000000000000000000000600052603160045260246000fd5b7f50726f706f73616c20646f6573206e6f742065786973742e0000000000000000600082015250565b6000614156601883612b66565b915061416182614120565b602082019050919050565b6000602082019050818103600083015261418581614149565b9050919050565b7f566f74657320617265206e6f742074616c6c696564207965742e000000000000600082015250565b60006141c2601a83612b66565b91506141cd8261418c565b602082019050919050565b600060208201905081810360008301526141f1816141b5565b9050919050565b7f596f752068617665206e6f7420766f746564207965742e000000000000000000600082015250565b600061422e601783612b66565b9150614239826141f8565b602082019050919050565b6000602082019050818103600083015261425d81614221565b9050919050565b600061426f82612af8565b915060008203614282576142816136e7565b5b60018203905091905056fea2646970667358221220fc277078b421c927ae9c575088b3f6384814b4d72637d52a220c93a7595c0e8e64736f6c63430008140033",
  "linkReferences": {},
  "deployedLinkReferences": {}
}